:020000040800F2
:1000000080430020D9020008C5510008974C000821
:100010000151000881260008115C00080000000062
:10002000000000000000000000000000CB540008A9
:100030003B27000800000000C9540008CD54000808
:10004000F3020008F3020008F3020008F3020008BC
:10005000F3020008F3020008F3020008F3020008AC
:10006000F3020008F3020008F302000885260008E6
:10007000F3020008F3020008F3020008F30200088C
:10008000F3020008F3020008F3020008F30200087C
:10009000F3020008F3020008F3020008F30200086C
:1000A000F3020008F3020008F3020008F30200085C
:1000B000F3020008F3020008F3020008F30200084C
:1000C000F3020008F3020008F3020008F30200083C
:1000D000F3020008C15B0008F3020008F302000805
:1000E000F3020008F3020008F3020008F30200081C
:1000F000F3020008F3020008F3020008F30200080C
:10010000F3020008F3020008F3020008F3020008FB
:10011000F3020008F3020008F3020008F3020008EB
:10012000F3020008F3020008F3020008F3020008DB
:10013000F3020008F3020008F3020008F3020008CB
:10014000F3020008F3020008F3020008F3020008BB
:10015000F3020008F3020008F3020008F3020008AB
:10016000F3020008F3020008F3020008F30200089B
:10017000F3020008F3020008F3020008F30200088B
:10018000F3020008F3020008F3020008F30200087B
:10019000F302000800000000F3020008F302000868
:1001A000F3020008F3020008F3020008F30200085B
:1001B000F3020008F3020008F3020008F30200084B
:1001C000F3020008F3020008F3020008F30200083B
:1001D000F3020008F302000800F002F800F06CF8E7
:1001E0000AA090E8000C82448344AAF10107DA4592
:1001F00001D100F061F8AFF2090EBAE80F0013F078
:10020000010F18BFFB1A43F00103184740FF00001D
:1002100060FF00000A444FF0000C10F8013B13F09F
:10022000070408BF10F8014B1D1108BF10F8015B4F
:10023000641E05D010F8016B641E01F8016BF9D142
:1002400013F0080F1EBF10F8014BAD1C0C1B09D199
:100250006D1E58BF01F801CBFAD505E014F8016B0B
:1002600001F8016B6D1EF9D59142D6D3704700009D
:100270000023002400250026103A28BF78C1FBD8AF
:10028000520728BF30C148BF0B607047662906F08F
:10029000DD86642900F0D880002070471FB506F085
:1002A000C2FE00F0A7FC04000020002106F02CF89C
:1002B000E0601FBD10B510BD00F0A0FD1146FFF7B6
:1002C000EDFF05F067FF00F0BEFD03B4FFF7F2FF9E
:1002D00003BC00F0FFFD00000948804709480047C3
:1002E000FEE7FEE7FEE7FEE7FEE7FEE7FEE7FEE7E6
:1002F000FEE7FEE704480549054A064B7047000043
:1003000039550008D9010008803D002080430020B5
:10031000803F0020803F002053EA020C00F06980FB
:100320002DE9F04B4FF00006002B1FBFB3FA83F509
:1003300003FA05F424FA05F65E4012BF1643B2FA3A
:1003400082F502FA05F4C5F120051EBF22FA05FC6C
:1003500044EA0C04203556EA044C4FEA144418BF12
:10036000641C4FF000084FF00009904271EB030C41
:1003700039D3002919BFB1FA81F701FA07F6B0FAAB
:1003800080F700FA07F6C7F120071EBF20FA07FC26
:1003900046EA0C062037B6FBF4FCA7EB0507103F36
:1003A00007F01F0BCBF120060CFA0BFB2CFA06F61C
:1003B00044BFB3460026202FA4BF5E464FF0000B7B
:1003C0005BEA060C08BF4FF0010B19EB0B09ABFB06
:1003D000027C48EB0608C01B06FB02CC0BFB03CCDF
:1003E00071EB0C01C1E70B46024641464846BDE8A9
:1003F000F08B13B54FF000004FF00001AFF3008019
:10040000BDE81C40704700000FB4044910B503AAB2
:10041000029800F0DDFB10BC5DF814FB48020020E0
:100420000FB41CB5074B06AA7B446946009005989B
:1004300000F0B5FB0020694600F0C4FB1CBC5DF871
:1004400014FB0000990700002DE9F0410646002446
:1004500010687529314616A510D0AFF3008000282A
:1004600002DA404213A507E031688A0701D512A5D8
:1004700002E0490704D511A5012401E0AFF3008093
:1004800000210A2206F1240709E0B0FBF2FCB0FBD0
:10049000F2F302FB1C00303078541846491C002847
:1004A000F3D123462A463046BDE8F04100F00CB9AE
:1004B000000000002D0000002B00000020000000C4
:1004C0002DE9F0474FF0000A89460446C0F820A005
:1004D0002046E1688847002876D0252806D0D4E950
:1004E00001219047206A401C2062F1E7E168204624
:1004F00000268847C4F81CA005460027C4F818A0A9
:100500002A2D09D0284605F008FC38B304EB8708EB
:10051000303DC8F8185019E059F8041B204604EB88
:1005200087029161E1688847012F054618D1E0698B
:10053000002820DA26F020061DE0D8F8180000EB8D
:10054000800005EB40003038C8F818002046E1680C
:100550008847054605F0E1FB0028EED1012F0AD0BF
:100560002E2D08D12046E16888477F1C0546022FC2
:1005700046F02006C4DBA069002803DA404246F0BA
:100580000106A061F00701D026F010066C2D0AD0FC
:10059000682D08D04C2D39D06A2D35D0742D35D02A
:1005A0007A2D33D016E0E1682F4620468847B842BE
:1005B00005460AD16C2F27D04FF48060E1680643CE
:1005C00020468847054605E027E06C2F1AD04FF4F7
:1005D000807006430DB3A5F14100192802D82035DB
:1005E00046F400664A462946204626604E46FFF7F6
:1005F0004DFE80B101280BD0F61D26F0070000F15A
:10060000080965E74020E4E78020D7E70020D5E728
:1006100006F104095CE7284661E7206ABDE8F08737
:1006200010B5431C02E010F8011B71B18107FAD12B
:100630004FF0013202C88C1A8C4314EAC211F9D06F
:10064000C01A0A0603D0C01E10BDC01A10BD0A048D
:1006500001D0801E10BD0902FCD0401E10BD4FF01D
:10066000000200B5134694469646203922BFA0E802
:100670000C50A0E80C50B1F12001BFF4F7AF09070E
:1006800028BFA0E80C5048BF0CC05DF804EB8900FF
:1006900028BF40F8042B08BF704748BF20F8022B42
:1006A00011F0804F18BF00F8012B7047704770475A
:1006B000704710B500F0A2FA006810BD10B50446EE
:1006C00000F09CFA046010BD2DE9F0470D469946F4
:1006D0009246044600F124080168880604D5E069C2
:1006E00021F01001216000E00120A84201DD471B3C
:1006F00000E00027A1697A1902EB0900081AA0613D
:100700002078C00602D42046AFF30080002608E01F
:10071000D4E901211AF806009047206A401C761C93
:1007200020624E45F4DB2078C0060AD52046AFF3A0
:10073000008006E0D4E9012130209047206A401C67
:100740002062381EA7F10107F4DC07E0D4E901219B
:1007500018F805009047206A401C2062281EA5F169
:100760000105F3DC2046AFF300802078000602D5B7
:100770000220BDE8F0870120FBE770472DE9FF4F1D
:100780000C461E464FF0FF378BB0D2E90001DDF872
:1007900060800A908A46C1F30A5505B93D4600219A
:1007A00008464FF00000BAF1000F00F4400005DAEF
:1007B00000EB80004FF4400101EA50004FEA9059ED
:1007C000B9F1010F00DDB9460A9850EA4A000ED08F
:1007D00044F61050A5F2FF3545432F14B8F1000F31
:1007E0001ED07542291E1EDDC9F100021CE0B8F1C1
:1007F000010F4FF0000001D0302103E0F24305E08B
:100800002154401CB042FBDB304600220021215421
:100810000B99C1F80880C1E900200FB0BDE8F08F46
:10082000BD1B6D1CDEE74A4600DA694206A800F0EF
:100830006FFA06AB93E8070003AB83E80700504666
:100840000A9901F08AFA8DE80700A0F500501F38D8
:1008500000900398002D09DD42F21F014A4608442A
:1008600003A90390684601F0E9FC08E0A0F50050F8
:100870004A461F3803A90390684601F0F3FC8DE84F
:1008800007000004000C03D04FF0FF30410800E0E7
:100890001046B8F1000F03D00022009215461EE06A
:1008A000751E05D400F0AEF9303262556D1EF9D5D3
:1008B000B3460122084302D000227F1C04E02078C6
:1008C000302801D100227F1E002A099786D01DE022
:1008D000112D07DA00F096F9303262556D1C50EA9E
:1008E0000102F5D1084302D00098C8B10EE0002102
:1008F000681E05E0235C625C63542254401E491C60
:100900008142F7DBAB46A81B401E0990002004F88B
:100910000B000B98099AC0F80880C0E9002B7CE70F
:1009200011264FF0000859E72DE9F04F884604469C
:10093000D21D22F0070191B0D1E90001CDE90A01F1
:1009400005F06FF902460B98C00F01D02D2007E08B
:100950002068810701D52B2002E0202101EAC00098
:10096000032A099001D0072A05DB034641462046A9
:1009700000F08EF90BE12078800601D5E06900E0F7
:100980000620B8F1650F814606D0B8F1660F18D081
:10099000B8F1670F70D131E00020B9F1110F00906C
:1009A00001DB112301E009F101030AAA01A90CA846
:1009B000FFF7E4FEDDE90C70002609F1010583462E
:1009C00047E001204B4600904FF000470AAA01A9DA
:1009D0000CA8FFF7D3FEDDE90DB00C995D460026AB
:1009E00010B909F101000D18B9EB050003D4C0F1ED
:1009F000FF3609F10105A5EB09002BE0B9F1010F64
:100A000001DA4FF001090020B9F1110F00904846BA
:100A100001DD112300E003460AAA01A90CA8FFF793
:100A2000ADFEDDE90C704D460026834620780007B8
:100A30000AD4AB4500DA5D4601A8012D04DD411959
:100A400011F8011C302907D04F4502DA17F1040FC5
:100A500004DA012082460FE06D1EEEE7002F02DC73
:100A6000ED1B3E4403E0781CA84200DD7D1CB81B52
:100A700000F1010A4FF000472078000703D4AA458F
:100A800001DB4FF0FF3A0021B7F1004F0DF14308B1
:100A90008DF8431024D002202B23002F01DA7F424F
:100AA0002D230A21021EA0F1010000DC5FB197FB9B
:100AB000F1FC97FBF1F201FB1C7C17460CF1300CAA
:100AC00008F801CDEEE7A8F10100037021880905BF
:100AD00001D5452100E06521A0F1010800F8011CC5
:100AE00009980FA9A1EB0807FF1D00B101204119CA
:100AF00001EBEA70A1693844081A401EA061207811
:100B0000C00602D42046AFF30080099828B1D4E98A
:100B100001219047206A401C20622078C00622D51F
:100B20002046AFF300801EE0002E04DBB34502DD5B
:100B300001A8805D00E03020D4E901219047206ABF
:100B4000401C2062761CAAF101005FEA000A0AD16B
:100B500000F050F8C0680168405CD4E9012190477A
:100B6000206A401C2062281EA5F10105DCDC07E09C
:100B7000D4E9012118F8010B9047206A401C20623B
:100B8000381EA7F10107F3DC2046AFF300800320F5
:100B900011B043E601694A1C02610878704700B54C
:100BA0008FB0CDE901310021059105497944CDE9A6
:100BB000031011466846FFF783FC0FB000BD00002C
:100BC000E5FFFFFF0A6802F8010B0A6070470000AA
:100BD000074B70B50D467B44FFF7E1FF04462846FE
:100BE00000F004F910B14FF0FF3070BD204670BD29
:100BF0009F55000000487047403D00200048704766
:100C0000203D002030B5B0F10A024FEA900E71F19C
:100C100000034EEA817EB0EB0E0061EB91014FEADA
:100C2000101E4EEA017E10EB0E0041EB11114FEA4F
:100C3000102E4EEA016E10EB0E0041EB11214FEA2F
:100C4000104E4EEA014E10EB0E0041EB11414018E0
:100C500041F100014FEAD00040EA41704FEAD10172
:100C600010EB80054FEA810444EA907444EB0104E0
:100C70006D1944EB0404521BA3414FF0000348BF1D
:100C80000A3200D530BD401C41F1000130BD0000EA
:100C90002DE9F0411F46044603260168072A01F4A6
:100CA000006004DB08B116A505E016A503E008B155
:100CB00015A500E015A521F010002060A069C01E58
:100CC000A0610FB1401EA0612046AFF300804FB17C
:100CD000D4E9012138469047206A401C2062C01C9C
:100CE000206206E0206AFAE7D4E9012115F8010B39
:100CF0009047761EF8D22046AFF30080BDE8F08121
:100D00004E414E006E616E00494E4600696E6600AF
:100D10002DE9F047814616468AB0334878440DC81D
:100D20008DE80D0030487844801C03AC0DC884E881
:100D30000D0041F69B300844372190FBF1F290FB07
:100D4000F1F5A5F1800501FB12041B3C02D56442BC
:100D5000012000E00020DFF890A080460027FA4440
:100D6000AAF1BE0A0DE0E00709D03246684607EB5B
:100D700047010AEB810101F075FA8DE80700641064
:100D80007F1C002CEFD1184F7F44AC3F18E0E807E0
:100D900014D007EB04100DF1180A90E80E008AE851
:100DA0000E00C068F04201D198190890324606A999
:100DB00003A801F057FA03AB83E807006D10641C29
:100DC000002DE4D132466946B8F1000F03A802D0E5
:100DD00001F034FA01E001F045FAC9E90001C9F86F
:100DE00008200AB0BDE8F087146C0000007B00F01A
:100DF0008000704700487047203D00207546FFF78F
:100E0000F9FFAE4605006946534620F007008546C7
:100E100018B020B5FFF76EFABDE820404FF000068D
:100E20004FF000074FF000084FF0000B21F00701D2
:100E3000AC46ACE8C009ACE8C009ACE8C009ACE815
:100E4000C0098D4670470446AFF300802046FFF787
:100E50003CFA00004FF0013C50F8042B51F8043BE1
:100E60009A4221D1A2EB0C03934313EACC1317D17E
:100E700050F8042B51F8043B9A4215D1A2EB0C0315
:100E8000934313EACC130BD150F8042B51F8043BD5
:100E90009A4209D1A2EB0C03934313EACC13DBD0A3
:100EA0004FF00000704700BFD01A01BAB1FA81F1CB
:100EB00001F0180122FA01F0CB40C1F12001DBB2B0
:100EC000C0B2C01A2CFA01F3D11A914311EAC3112E
:100ED000E6D1704701491820ABBEFEE726000200AC
:100EE000704700002DE9F04701264FEA42084FEA1B
:100EF00051090024002506EB510C6FF0010606EBAA
:100F0000510E00BFADB26600AC4228D250F8267038
:100F100050F83520E900043140F8262040F83570BB
:100F200046F0010250F822A0475840F8227040F8DD
:100F300001A004EB0C0105EB0C0750F831A050F8B0
:100F4000372040F83120C90040F837A0FF000431B5
:100F5000043750F801A0C259425040F807A000EBF6
:100F600086014D448A6850F835608E6040F835201F
:100F7000ED000435CA684659CE604251A21C03EB0D
:100F8000080194B21D880B46744588BFBDE8F08700
:100F9000B8E7B0B582B00C4605468389426801883F
:100FA0008078012805D128690090204600F008FCCF
:100FB00002E0204600F050F9E87801281CBF02B09A
:100FC000B0BDAB68EA892988204602B0BDE8B040D0
:100FD000FFF788BF48F24C1CFF29C0F6000CC0F890
:100FE00004C00180C370827047F64C124FF0FF03BB
:100FF000C0F600020DDDB1F5807F13D0B1F5805F42
:1010000015D0B1F5806F21D106324FF06A5104231B
:1010100017E010290FD0402918D17E324FF07251BD
:1010200040230EE01E324FF06E51102309E04FF0C6
:101030006651012305E002F5FF724FF076514FF43F
:101040008073C381838100230161826058B270473D
:101050002DE9F04381B00546002090460C46B0EBE8
:10106000920F4CD04FEA9800C0F10009D5E9000773
:10107000014605F089FF06463846394605F084FFEB
:101080000146304605F0F9FE05F0B2F82060D5E9DA
:101090000206014605F078FF07463046314605F066
:1010A00073FF0146384605F0E8FE05F0A1F86060E0
:1010B000D5E90406014605F067FF0746304631468C
:1010C00005F062FF0146384605F0D7FE05F090F8BE
:1010D000A060D5E90606014605F056FF07463046F2
:1010E000314605F051FF0146384605F0C6FE05F0D1
:1010F0007FF8E0601034203519F10109B6D118F0FD
:10110000030016D0474200BFD5E90006014605F0AE
:101110003BFF80463046314605F036FF01464046EB
:1011200005F0ABFE05F064F844F8040B0835013710
:10113000EAD101B0BDE8F0832DE9F04F89B08346D4
:1011400091464A1E4FF0000A98460F465BF8046B22
:10115000BAEB920F62D0029090080121CDE9047998
:1011600003924FF0000A0425CDF8188061F30102C4
:10117000404201920890DBE90087DBE902400790DA
:101180003046414605F0A5FE81463046414605F011
:10119000A0FE002818BFA5F1030A3946B9F1000FD7
:1011A00018BF4646304605F094FE002830463946C2
:1011B00018BFA5F1020A05F08CFE002818BF3E46B4
:1011C0003046214605F085FE00283046214618BFEE
:1011D000A5F1010A05F07DFE002818BF2646079CF0
:1011E0003046214605F075FE00283046214618BFDE
:1011F000AA4605F06EFE0028089818BF26460BF197
:10120000100B04350130B5D1DDE901100DF10C09E9
:10121000DDF8188099E8840200EB810B12F00300DE
:1012200013D045425BF8044B3046214605F051FE91
:1012300000283046214618BF07EB050A05F049FE95
:10124000002818BF26460135ECD1C9F80060C8F85F
:1012500000A009B0BDE8F08F2DE9F04FA3B08346A0
:1012600000200C91144604931E9206922292A0EB49
:10127000910718018908CDF808B00B90D8000191AA
:1012800005910A9003EB4300C0000990C80021902B
:101290000801209001EB4100C0001F90CDE91C47E0
:1012A0002098DBF804A05BF800108046DBF8000013
:1012B000CDF84CA01791169005F0DFFD21991F9AEB
:1012C000074619905BF801000E465BF802101546C0
:1012D0001590149105F0D1FD81463846494605F038
:1012E000CCFD0BEB05014F681B910BEB06014E6823
:1012F0000F910BEB08011A91496811971096129102
:10130000D4E90082CBF8000050460D9205F0B5FDFF
:1013100005463046394605F0B0FD044628462146CC
:1013200005F0ABFDCBF804001998494605F085FEA1
:1013300006462846214605F080FE044630464146D2
:10134000C24605F021FE0D9F05462046394605F0B0
:101350001BFE0146284605F090FD2299DDF87880B5
:101360000A68496818921991D8E900910E9121995B
:101370004BF801005046214605F006FE0446304673
:10138000394605F001FE0146204605F056FE0F994C
:101390004860DDE9160105F050FE16900446DDE9CF
:1013A000141005F04AFE17900546DDE9121005F00D
:1013B00044FE15900646DDE9100105F03EFE0746A5
:1013C0002046394605F059FD04463046294605F0C9
:1013D00034FE0546204649464E4605F0D5FDDDF86B
:1013E000389082462846494605F0CEFD01465046D3
:1013F00005F043FD20994BF801002846314605F0E1
:10140000C3FD05462046494605F0BEFD0146284677
:1014100005F013FE1A9948601698394605F00DFE3E
:1014200081461598179905F028FD189C05464846F1
:10143000214605F0A9FD199F06462846394605F0C4
:10144000A3FD0146304605F018FD1F994BF8010039
:101450002846214605F098FD054648461C9C39461D
:1014600005F092FD0146284605F0E7FD1B991D9FFA
:101470000BF1080B48600B982299013704440A9835
:1014800080440998CDF87880014422917FF406AF1A
:101490000C981428C0F02F81059B00BF4FF0FF303F
:1014A0009908DDF80880DF00002500220F9300EB8B
:1014B0009300CC000E0103910890049880000490E2
:1014C00080B2079001EB4100CDE921464FEAC00907
:1014D000CDE90D97DDF818C002EB420E09925CF8D9
:1014E0003E105CF832001491110115905CF8010077
:1014F000043113905CF80100D100043112905CF8C3
:10150000010011904FEACE0004305CF8000010900A
:10151000CDE90A85209558F80610D8F80000D8F8CB
:1015200004501C911D90199505F0A7FC824658F8AF
:10153000040058F809101B901A9105F09EFC834690
:101540005046594605F099FC08EB090108EB0409DF
:101550004E681F912299D9F8047041441896179744
:101560001E914968C8F800002846169105F085FCD0
:1015700004463846314605F080FC06462046314692
:1015800005F07BFCC8F804005046594605F055FDAF
:1015900082462046314605F050FD139F04465146D1
:1015A000384605F0F1FC129D06462146284605F016
:1015B000EBFC0146304605F060FC219948F801003B
:1015C0003846214605F0E0FC04462846514605F021
:1015D000DBFC0146204605F030FDC9F80400DDE9DA
:1015E0001C1005F02AFD1C900446DDE91A1005F0D8
:1015F00024FD05461D901998169905F01EFD81469B
:10160000DDE9170105F019FD07462046394605F0CA
:1016100034FC04464846294605F00FFDDDF854A089
:1016200005462146504605F0AFFCDDF844B00646BD
:101630002946584605F0A8FC314605F01EFC2299C3
:1016400048F801005046294605F09EFC05465846DC
:10165000214605F099FC0146284605F0EEFC1E994E
:1016600048601C98394605F0E8FC1D9982464846BA
:10167000DDF8349005F001FC149F054651463846CC
:1016800005F082FC109C06462946204605F07CFCAD
:10169000314605F0F2FB48F809003846294605F0C6
:1016A00073FC054620465146219C05F06DFC014621
:1016B000284605F0C2FC229EDDE90E73DDE91F1508
:1016C00048600C981D44B8448542FFF423AF079846
:1016D000099A0B9DDDF8288002440898013508F12D
:1016E000080885427FF6F6AE0599039B8808132902
:1016F00005903FF6D3AE0198029C404222902568A7
:101700006068A6686169E7681D951F9021961E9123
:1017100005F093FCA16980463046209105F08DFCD0
:1017200081464046494605F0A8FBE669E061284647
:1017300021691C9105F081FC82463846314605F04E
:101740007CFC83465046594605F077FCA061404634
:10175000494605F072FC60615046594605F08DFB24
:101760002061DDE91E1005F088FB804638463146D1
:1017700005F083FB05464046294605F05EFCE06027
:10178000DDE91C1005F079FB0646DDE9201005F0C7
:1017900074FB07463046394605F04FFCA0604046D2
:1017A000294605F06AFB60603046394605F065FB66
:1017B0002060229820340130A0D123B0BDE8F08F02
:1017C0002DE9F04FA3B0834600200B9114460393FC
:1017D0001D9205922292A0EB910718018908CDF87D
:1017E00004B00C90D800009104910A9003EB4300E0
:1017F000C0000990C800209008011F9001EB410033
:10180000C0001E90CDE91B471F98DBF800205BF855
:1018100000108146DBF804001692219010461591C5
:1018200005F02BFB20991E9A80465BF801000E46BE
:101830005BF8021015461490139105F01EFB8246CA
:101840004046514605F019FB0BEB05014F681A9114
:101850000BEB06014E680F910BEB090119914968DA
:10186000119712961091D4E90092CBF800002198BC
:101870000D9205F002FB05463046394605F0FDFAAB
:1018800004462846214605F0F8FACBF80400404605
:10189000514605F0D2FB06462846214605F0CDFB11
:1018A00004463046494605F06FFB0D9F054620462D
:1018B000394605F069FB0146284605F0BEFB229932
:1018C000DDF874800A68496817921891D8E900A178
:1018D0000E9120994BF801004846214605F054FB33
:1018E00004463046394605F04FFB0146204605F0D8
:1018F000C4FA0F994860DDE9151005F09EFB1590BC
:101900000446DDE9131005F098FB05461690219872
:10191000109905F092FB21900746DDE9111005F0C2
:101920008CFB06462046314605F087FB04463846C8
:10193000294605F0A2FA054620465146574605F0CD
:1019400023FBDDF8389082462846494605F01CFB0B
:101950000146504605F071FB1F994BF801002846DF
:10196000394605F011FB05462046494605F00CFBBB
:101970000146284605F081FA1999486015983146C4
:1019800005F07BFA81462198169905F056FB179CC5
:1019900005464846214605F0F7FA189F06462846B0
:1019A000394605F0F1FA0146304605F046FB1E992E
:1019B0004BF801002846214605F0E6FA0546484660
:1019C0001B9C394605F0E0FA0146284605F055FA19
:1019D0001A991C9F0BF1080B48600C98229901374B
:1019E00004440A9880440998CDF8748001442291F7
:1019F0007FF408AF0B981428C0F02E81049B00BF21
:101A00004FF0FF309908DDF80490DF000025002436
:101A100000EB93000E0102910790C8000D9003980F
:101A20008000039080B2069001EB4100CDE90E7377
:101A300022964FEAC008CDF8308000BF059A04EB2B
:101A4000440C089452F83C1052F8340014912101CF
:101A500015905058043113905058E1000431129001
:101A6000505811904FEACC00043010581090CDE936
:101A7000099500BF59F80610D9F80000D9F80440BC
:101A8000DDF834A021951D911E901A9405F0F5F90A
:101A900059F808100546169059F80A001C901B9139
:101AA00005F0EBF983462846594605F0E6F909EBBF
:101AB000080109EB0A084F6820912299D8F80460C0
:101AC0004944179719961F914968C9F800002046A4
:101AD000189105F0D2F905463046394605F0CDF9A2
:101AE00004462846214605F0C8F9C9F804001698AE
:101AF000594605F0A2FA83462846214605F09DFA8C
:101B0000139F04465946384605F03EFA129E054694
:101B10002146304605F038FA0146284605F08DFA90
:101B200049F80A003846214605F02EFA04463046A8
:101B3000594605F029FA214605F09FF9C8F8040036
:101B4000DDE91D1005F079FA1D900446DDE91B1052
:101B500005F073FA05461E901A98189905F06DFA6B
:101B600082461998179905F068FA074620463946C3
:101B700005F063FA04465046294605F07EF9DDF883
:101B800054B005462146584605F0FEF9DDF844807C
:101B900006462946404605F0F7F90146304605F06D
:101BA0004CFA229949F801005846294605F0ECF90B
:101BB00005464046214605F0E7F90146284605F06E
:101BC0005CF91F9948601D98394605F056F91E9931
:101BD00083465046DDF8308005F02FFA149F054605
:101BE0005946384605F0D0F9109C0646294620464D
:101BF00005F0CAF90146304605F01FFA49F8080019
:101C00003846294605F0C0F905462046594605F0F4
:101C1000BBF90146284605F030F920AEDDE90E7328
:101C200062CE1D44B94448600B988542FFF422AF50
:101C30000698089C0A9DDDF8249004440798013515
:101C400009F1080985427FF6F9AE0499029B8808DC
:101C5000132904903FF6D4AE0098019C2C9E40427C
:101C6000229025686068A7686169D4F80CB01D955A
:101C70001F9021971E9105F0E0F9A1698046384632
:101C8000209105F0DAF981464046494605F0D5F93C
:101C9000314605F079F9E769E06128462669314661
:101CA00005F0CBF98246584639465D4605F0C5F940
:101CB00083465046594605F0E0F82C9905F064F942
:101CC000A0614046494605F0D8F82C9905F05CF92A
:101CD00060615046594605F0B0F92C9905F054F969
:101CE0002061DDE91E1005F0C8F880462846394617
:101CF00005F0C3F805464046294605F09EF92C99A3
:101D000005F042F9E0601D98314605F0B6F8064648
:101D1000DDE9201005F0B1F807463046394605F0F8
:101D20008CF92C9905F030F9A0604046294605F061
:101D3000A4F82C9905F028F9606030462C9E3946AD
:101D400005F09BF8314605F01FF9206022982034F9
:101D5000013085D123B0BDE8F08F5FEA400C08BFA9
:101D600091F0000F4FEA8C234FEAC12243EA515110
:101D70004FEA1C5018BF00F5F0404FEA300018BF82
:101D800041F000415FEA6C5C00F02980BCF1FF3F4C
:101D900008BF40F080407047130C06BF12044FF09C
:101DA000100C4FF0000C130E04BF12020CF1080CC3
:101DB000130F04BF12010CF1040C930F04BF920027
:101DC0000CF1020CD30F04BF52000CF1010C1146B0
:101DD0004FF00002A0F11F00A0EB0C00704711F0C3
:101DE000004F08BF704731F000413FF4D5AF0B0CF6
:101DF00006BF09044FF0100C4FF0000C0B0E04BF8F
:101E000009020CF1080C0B0F04BF09010CF1040CC2
:101E10008B0F04BF89000CF1020CCB0F04BF4900EB
:101E20000CF1010CCCF12003A0EB0C0022FA03F31F
:101E300002FA0CF241EA030100F10100704720F0C0
:101E40007F4C80EA030023F07F47ACEB070303F5E8
:101E50007C5300F0004003F1FF032DE980494FEA75
:101E6000154B09B44FEA144325EA0B4E24EA034804
:101E70000FF2042606EB132749083E785FEA320288
:101E800003FB0667C7F5000707FB06F64FEA543762
:101E90004FEAD64606F1020607FB066CCCF1005C61
:101EA0004FEA1C472CEA074C07FB06F40CFB06F52F
:101EB00004EB15464FEA961634BF00204FF0004061
:101EC0004FEAD13706FB07FC4FEA1C4C0CFB0BF723
:101ED000D21B03FB0CF761EB07010CFB0EF7B0EB19
:101EE000074072EB17420CFB08F734BFA2EB074226
:101EF000B2EB074261EB17414FEA0C444FEA9107FE
:101F000006FB07FC4FEA1C4C0CFB0BF7B0EBC74081
:101F100072EB573203FB0CF734BFA2EBC742B2EBB4
:101F2000C74261EB57310CFB0EF7B0EBC70072EB09
:101F300057720CFB08F734BFA2EBC702B2EBC70223
:101F400061EB5771039F4FEA816141EA921104EB03
:101F5000CC044FEAD1374FEA826206FB07FC42EA23
:101F600090124FEA80604FEA1C4C0CFB0BF7D21B1F
:101F700003FB0CF761EB07010CFB0EF7B0EB07401E
:101F800072EB17420CFB08F734BFA2EB0742B2EB2F
:101F9000074261EB17414FEA8C554FEA910704EB7A
:101FA0009C2406FB07FC4FEA1C4C0CFB0BF7B0EB28
:101FB000C74072EB573203FB0CF734BFA2EBC742AA
:101FC000B2EBC74261EB57310CFB0EF7B0EBC70029
:101FD00072EB57720CFB08F734BFA2EBC702B2EBEF
:101FE000C70261EB577115EB4C254FEA816141EA5D
:101FF00092114FEA82624FEAD13742EA901206FB11
:1020000007FC44F100044FEA80604FEA1C4C0CFBD3
:102010000BF7D21B03FB0CF761EB07010CFB0EF770
:10202000B0EB074072EB17420CFB08F734BFA2EB92
:102030000742B2EB074261EB174115EB1C154FEA63
:10204000813141EA92414FEA823242EA90424FEABC
:1020500080304FEA0C7644F1000448EA03434EEA2C
:102060000B484FF0000EB2EB080C71EB030724BFD6
:10207000624639464EEB0E0E4FF0000B00185241EF
:1020800049414BEB0B0BB2EB080C71EB03077BF1F7
:10209000000B24BF624639464EEB0E0E4FF0000B8C
:1020A0000018524149414BEB0B0BB2EB080C71EBA2
:1020B00003077BF1000B24BF624639464EEB0E0E40
:1020C00051EA020718BF46F0010616EB0E7655F1ED
:1020D000000254F1000103D5BDE88901BDE8008884
:1020E000BDE88901BDE80048B619524141EB010144
:1020F000A3F10103704780807F7E7D7C7B7A7978B5
:10210000777676757473727171706F6E6E6D6C6CBC
:102110006B6A6A696868676666656464636362615E
:102120006160605F5F5E5E5D5D5C5C5B5B5A5A59DF
:10213000595858575756565555555454535352524B
:102140005251515050504F4F4F4E4E4D4D4D4C4CA3
:102150004C4B4B4B4A4A4A494949484848474747EC
:102160004746464645454544444444434343434229
:10217000424242414141002B26D4770021D01CB578
:102180004FEA370703B44FF010004FF010014FF043
:1021900000000FBCBDE810400BF1010BBBF1010FBB
:1021A00008BF5FEA170722BF12F1010211F1010116
:1021B0004FF0004143F1000300F0004043EA00000B
:1021C0007047F9D35708DAE746EA064613F1400F9D
:1021D0004FEA16461FDD13F1200FDFBF16430A46F4
:1021E000002120335B42C8D0C3F1200746EA0646EF
:1021F00002FA07F74FEA164646EA0706C3F1200738
:1022000022FA03F201FA07F721FA03F14FF0000373
:1022100042EA0702B1E746EA020646EA06464FEA04
:10222000164646EA0106BCBF46EA0646360C4FF0A3
:1022300000034FF000024FF000019EE72DE9C04877
:10224000934630B491E8380007C831EA400C48BFE3
:1022500034EA430C03D5FFF7F2FDFFF78CFFF0BC27
:10226000BDE800882DE9C048934630B491E83800B5
:1022700007C810F0804F08BF13F0804F03D100F063
:1022800005F8FFF778FFF0BCBDE8008820F07F4735
:1022900080EA030023F07F4C07EB0C03A3F57C538B
:1022A00000F00040A3F1FE0392F0000F00F0B380B5
:1022B00095F0000F00F077802DE901494FEA1140B9
:1022C0004FEA144621EA004800FB06FC24EA0647D0
:1022D00008FB06F607FB08F800FB07F718EB0648B3
:1022E0004CEB164C4FEA124B18EB07484FEA1546D9
:1022F0004CEB174022EA0B4E0BFB06FC25EA064787
:102300000EFB06F607FB0EFE0BFB07F71EEB064E59
:102310004CEB164C4FF000061EEB074E4CEB174BE8
:1023200018EB0B0840F1000018EB0E0B58EB0008FF
:1023300040F100008F1A4FF000013CBFC943661BFB
:1023400014BFB5EB040C00213CBFC943F61B4FEA98
:1023500017444EEA8E0E27EA04454FEA1C4704FB59
:1023600007622CEA074C05FB07F70CFB05F604FB9C
:102370000CFC16EB074642EB174216EB0C4642EB01
:102380001C421BEB060658EB0202414146EA9E0640
:1023900001D5BDE80189B619524141EB0101A3F114
:1023A0000103BDE801894FEA14454FEA114724EAC9
:1023B000054621EA074C05FB07F406FB07F70CFB73
:1023C00006F105FB0CFC11EB074144EB17444FEA07
:1023D000124711EB0C4144EB1C4422EA074C05FB6D
:1023E00007F206FB07F70CFB06F605FB0CFC16EBE9
:1023F000074642EB174216EB0C4642EB1C456A18A7
:1024000054F1000148BF7047B619524141EB010138
:10241000A3F10103704795F0000F37D04FEA114246
:102420004FEA144721EA024624EA074C02FB07F16F
:1024300006FB07F70CFB06F402FB0CFC14EB07444D
:1024400041EB17414FEA154714EB0C4441EB1C419B
:1024500025EA074C02FB07F506FB07F70CFB06F61F
:1024600002FB0CFC16EB074645EB174516EB0C463A
:1024700045EB1C42121951F1000148BF7047B619D3
:10248000524141EB0101A3F1010370474FEA1445AA
:102490004FEA114724EA054621EA074C05FB07F1FC
:1024A00006FB07F70CFB06F24FF0000605FB0CFCE1
:1024B00012EB074241EB174112EB0C4251EB1C416E
:1024C00048BF7047921841EB0101A3F10103704727
:1024D00010B5846AE16D11F0500F06D0E16DC906A8
:1024E00025D5204600F086FD10BDE06D40F400705B
:1024F000E06520680168090716D502F0CFFC78B1C5
:102500002068C068800400280ADBE06D20F4807039
:10251000E065E06DC00403D4E06D40F00100E065CB
:10252000204600F065FD10BDC0688007EBE7616DD7
:10253000496BBDE81040084710B5806AC16D41F095
:102540004001C165016E41F00401016600F052FDD9
:1025500010BD10B5806A00F04CFD10BD70B504468A
:102560000068816811F0010F2DD18168174A11426E
:102570001AD18168D5432940491C816001F0E6F9F0
:1025800006461BE0816811F0010F03D181682940E4
:10259000491C816001F0DAF9801B02280ED92068FD
:1025A0000068C043C00709D0E06D40F01000E0654E
:1025B000206E40F001002066012070BD2068016897
:1025C000C943C907DED1002070BD00003F00008074
:1025D00010B54FF4C83000F0B3F84FF480620649EC
:1025E000064800F07BFE064C02E0052003F0A6FB47
:1025F00020880128F9D010BDF40300204C020020EF
:102600000200002010B500210222084602F072FEEE
:1026100003220021102002F06DFE0422022100207E
:1026200002F068FE05220221102002F063FE06225D
:102630000421002002F05EFE08220421102002F096
:1026400059FE02230CA21946682002F0D1FE022393
:10265000562204215A2002F071FE0223252206216F
:102660005A2002F06BFE02230621BDE8104003A2AF
:10267000002002F0BDBE0000487A0000544844002B
:10268000FEE70000024901200880024800F02DBF4B
:1026900002000020B80200200D4902688A4201D2DF
:1026A0000C4901E00B492031D2B21423083AB2FBA5
:1026B000F3F2436C02F01F0223F003031944816418
:1026C00004498031C16401219140016570470000D7
:1026D00008040240000802400179074A02EB810227
:1026E0004265054A4432491E826501F01F020121FC
:1026F0009140C16570470000FC08024030B5D0E948
:1027000013456560446D14B1D0E91645656090F8D5
:10271000444004F01F050124AC40056C6C60046863
:1027200063608368102B036803D099600068C260FF
:1027300030BD9A600068C16030BD704772B6FEE778
:1027400030B587B000241F4A00940194029403948A
:10275000049405940121069412680B0401E0491CBD
:1027600089B2B2FBF0F5B5FBF1F59D42F7D2B2FBB1
:10277000F0F0B0FBF1F21548134B491E0360C0E9BD
:1027800001148021521E8161C0E9032401F028FF59
:1027900008B1FFF7D3FF4FF48050009069460B4813
:1027A00001F0A4FF08B1FFF7C9FF2020049004A99D
:1027B0000694064801F0B8FE002801D0FFF7BEFFDE
:1027C00007B030BD100000200004004018030020B6
:1027D0002DE9F04F664C674802252DED028B8BB03A
:1027E000F0EE000A40F2FE3300EB850191ED000AA5
:1027F00010EE102AA2420FDD11ED011A21EE201A6F
:10280000B4EEC10AF1EE10FA06DD91ED011AB4EE54
:10281000C10AF1EE10FA02DA6D1C9D42E4D300EB1E
:102820008501012491ED000A82468DED000A0DF12B
:102830001409EB46601C68430AEB8000002610ED8B
:10284000020A37468DED050A10ED010A8DED060AE4
:1028500090ED000A8DED070A90ED010A8DED080A52
:1028600090ED020A8DED090A01E0002716E009EB60
:102870008700804690ED000A90ED018AB4EEC80A08
:10288000F1EE10FA09D210EE100A04F0CBFA88ED3E
:10289000008A03F04FFDC8F804007F1CC6F1040055
:1028A000B842E4D8761C042EDFD30BEB84009DEDF8
:1028B000050A641C594680ED000A052CBAD32E4B3C
:1028C0009FED2E0A00204FF0824400BF01EB8002F2
:1028D0001568A54201DA82ED000A15689D4201DD06
:1028E00082ED000A401C0528F0D39DED010ADDEDC4
:1028F000020A20EE000A00EEA00ADDED030A00EE57
:10290000A00ADDED040A00EEA00A10EE100A04F0A1
:1029100089FA41EC100B03F0C3F9B0EE408AF0EEF7
:10292000608A009804F07EFA41EC100B51EC180B11
:1029300053EC102B03F0E4FD9FED111B53EC112B16
:1029400003F086FF41EC180BB0EE480AF0EE680A7F
:1029500003F06EFC0222B0EE480AF0EE680A06218F
:10296000282002F029FD0BB0BDEC028BBDE8F08FF2
:1029700000004843F42B00200050434700000000B3
:10298000000000000000594070B5264D00242DEDD8
:10299000048B40F2FF369FED1F9B9FED208B00BF05
:1029A00035F8140003F004FF53EC192B04F04EF833
:1029B00005D235F8140003F0FBFE41EC190B35F895
:1029C000140003F0F5FE53EC182B03F005FF05D2BD
:1029D00035F8140003F0ECFE41EC180B641CA4B2B3
:1029E000B442DDD353EC182B51EC190B04F030F941
:1029F0009FED0D1B53EC112B03F02AFF9FED0C1BD9
:102A000053EC112B03F07CFDBDEC048B41EC100B5F
:102A100070BD000000000000000000000000000089
:102A20000000B040F40300206666666666660A40F1
:102A30000000000000FEAF402DE9F04F044690F882
:102A400058009BB00F464FF0000B012812D0012018
:102A500084F8580000261796189620684FF0A04872
:102A6000DFF81891DFF818A1464D404506D12846F9
:102A7000009508E002201BB0BDE8F08F484515D155
:102A80005046CDF800A002F005FA0090206802F050
:102A900001FA0099084311D0E06D40F02000E06594
:102AA0004FF0010B84F858605846E4E7E06D40F0C1
:102AB0002000E06584F858600120DCE7206841468A
:102AC000884201D0A84201D12F4800E02F48D7F812
:102AD00000C02F4B40F61F72BCF1000F2DD0D0F874
:102AE00008C094F838802CF4604C4CEA483CD7F885
:102AF00004804CEA080CC0F808C0D4F800C08C452B
:102B000001D0AC4504D18968AB6801F0010109E04E
:102B1000D9F80810DAF8085001F0010105F00105B4
:102B20009B68294303F001031943BBD1BB68396893
:102B300019438368934319431DE0876827F460476E
:102B4000876027688F4201D0AF4204D18968AB68A3
:102B500001F0010109E0D9F80810DAF8085001F095
:102B6000010105F001059B68294303F001031943A6
:102B700098D181689143816094E70000000400507F
:102B800000050050000100500003005000070050F5
:102B9000000600502DE9F84F00270446009790F8F2
:102BA0005800DFF810840D46B946012811D00126DF
:102BB00084F85860206802F069F960B1E06D40F077
:102BC0002000E0655FF0010784F858903846BDE8C2
:102BD000F88F0220FBE7D5E900210C23206803EAE7
:102BE00091131844036B01F01F014FF01F0C0CFAF6
:102BF00001FCC2F3846223EA0C038A40134303639B
:102C0000206802F043F98246206802F03BF95AEA54
:102C100000003CD1AA6829682068B2F1004F37D083
:102C200002F044F92068416921F0004141612068C7
:102C30006969C268C2F3C102520091402A69042A3C
:102C400031D000EB82002B68026EDFF86CC303F01A
:102C5000F84302EA0C020B431A4342F000410166BA
:102C600022682869A96902EB8000026E22F0807256
:102C70000A430266297F20682A69012910D00021B1
:102C800000EB8200026E22F000720A4302667DE0D1
:102C9000002202F00BF92068416941F00041C5E7CC
:102CA0004FF00071ECE7002102F0E6F840032068E5
:102CB0004FF0000172D002F0DFF890FAA0F0B0FA05
:102CC00080F1286842036ED090FAA0F0B0FA80F04C
:102CD000814204D100221146206802F0F6F8012159
:102CE000206802F0C9F8400320684FF001015DD070
:102CF00002F0C2F890FAA0F0B0FA80F1286842031E
:102D000059D090FAA0F0B0FA80F0814204D10022AC
:102D10000121206802F0D9F80221206802F0ACF805
:102D2000400320684FF0020148D002F0A5F890FA65
:102D3000A0F0B0FA80F12868420344D090FAA0F0E5
:102D4000B0FA80F0814204D100220221206802F012
:102D5000BCF80321206802F08FF8400320684FF090
:102D6000030133D002F088F890FAA0F0B0FA80F1B5
:102D7000286842032FD090FAA0F0B0FA80F0814288
:102D800004D100220321206802F09FF820688168A6
:102D900011F0010F22D0A7E000E004E002F06CF88F
:102DA000C0F384618DE7C0F3846091E702F064F8BA
:102DB000C0F38461A2E7C0F38460A6E702F05CF888
:102DC000C0F38461B7E7C0F38460BBE702F054F856
:102DD000C0F38461CCE7C0F38460D0E7EB68296876
:102DE000434550F8B03FC1F3120101D10B4300E05D
:102DF0008B430360E868404576D1286841031BD0C7
:102E000090FAA0F1B1FA81F1491C01F01F010929E2
:102E10004FEA403131D8002911D090FAA0F1B1FA2F
:102E200081F100BF01F1010101F01F0106FA01F675
:102E300008D1C0F3846109E0C0F38461E4E7C0F322
:102E40008461EFE790FAA0F1B1FA81F101F101019B
:102E500001F01F0146EA816102D1C0F3846003E002
:102E600090FAA0F0B0FA80F000F1010000F01F002D
:102E700000EB400041EA005132E000290ED090FA08
:102E8000A0F1B1FA81F100BF01F1010101F01F01D0
:102E900006FA01F605D1C0F3846106E0C0F384614F
:102EA000F2E790FAA0F1B1FA81F101F1010101F02C
:102EB0001F0146EA816102D1C0F3846003E090FA09
:102EC000A0F0B0FA80F000F1010000F01F003B4AD2
:102ED00000EB400002EB005041EA000141F00071BC
:102EE000AA68206801F0E2FF35482B6803423FF4EE
:102EF0006BAE22684FF0A04C3248334E334D6245E2
:102F000001D0AA4201D1014600E031468968DFF8CC
:102F1000C08001F0E071434503D0DFF8B88043453D
:102F200021D15FEA01281ED4624506D02A4B9A427D
:102F30007FF44AAEAA4200D0304641F400018268D4
:102F400022F0E0720A438260244825490068B0FB01
:102F5000F1F0401C00EB4000800000E0401E0090BB
:102F60000028FBD130E6DFF87C8043450FD15FEAD3
:102F7000C1180CD4AA4202D11B4B9A42F2D062452E
:102F800002D0AA4200D0304641F080710CE0DFF858
:102F90005C804345E6D14B02E4D4AA42E2D06245CC
:102FA00000D0304641F48001826822F0E0720A438A
:102FB000826009E600007F4000F0FF03000020FE71
:102FC000000008800003005000070050000100507E
:102FD000000021C31000C090000600501000002027
:102FE000400D0300000052C700050050000084CBD4
:102FF0007047704770470000F8B54FF000050400B7
:103000002E46009502D0E06D10B107E00120F8BD1A
:10301000204600F00DF9266684F858602068816823
:10302000C1F3407119B18168754A1140816020680F
:103030008168C1F3007189B98168724A114041F019
:1030400080518160704871490068B0FBF1F0400028
:10305000801C00E0401E00900028FBD120688168A1
:10306000C1F3007141B9E16D41F01001E165216EDC
:1030700041F001012166012501F008FFE16D01F039
:1030800010010143E06D05D040F01000E06501251E
:103090002846F8BD20F4807040F00200E06520680A
:1030A000816811F0010F27D14FF0A043584A984290
:1030B00001D0904204D19968966801F001010AE0BC
:1030C00054498968544E01F00101B66806F00106C2
:1030D0003143524EB66806F0010631430CD1984296
:1030E00001D0904201D14E4800E04E4861688268AC
:1030F00022F47C120A438260E168E06B627F08433D
:10310000A16841EA4231084394F8241040EA0140A2
:10311000012904D1218D444A02EB41410843E16A6F
:1031200029B101F47871226B014342EA0100216860
:10313000CA683E4B1A400243CA6020680169626B4C
:1031400021F0406111430161206801F09FFE0646B5
:10315000206801F097FE30432ED1207F94F838107C
:103160002268800340EA4101D06844F20203984398
:103170000843D06020690028206801690AD041F422
:1031800080310161206850F8C01F22696FF30D0182
:10319000114307E021F480310161206850F8C01F1D
:1031A0006FF30D01016094F8400001280CD02068F5
:1031B000016921F001010161606901282068016B4A
:1031C00021F00F0111D013E0D4E911010843D4E933
:1031D00013121143084321680A6940F2FC739A43B1
:1031E000104340F001000861E6E7226A521E1143D5
:1031F0000163E06D20F0020040F00100E06547E768
:10320000C0FFFF5FC0FFFF7F10000020400D0300E4
:10321000000100500004005000050050000600505E
:1032200000030050000700500000FEFF0740F0FFC1
:1032300070B59CB00546142115A8FDF710FA54216D
:103240006846FDF70CFA2868B0F1A04F3ED14FF464
:103250000040009080031190684600F075FC08B1B2
:10326000FFF76CFA1A49C86C40F40050C864C86C87
:1032700000F400501A90C86C40F00100C864C86C9B
:10328000002600F001001A90012015900320CDE9DE
:10329000160615A94FF0904000F02AFA0E4C0D4882
:1032A00020600520C4E901068020C4E903604000D5
:1032B00060618000A0612020C4E90706204600F07C
:1032C00071F908B1FFF73AFA6C65A5621CB070BDE0
:1032D0000010024008000240B80200202DE9F0472B
:1032E000044600684FF0A0483D4F91468A4640454D
:1032F00001D0B84201D13B4900E03B49896801F067
:103300001F0501F0C3FD002868D194F8580001287A
:1033100064D0012084F8580034492068884201D1E3
:10332000012000E00020401E28424FF0000605D09A
:10333000052D03D0092D01D0012003E02046FFF721
:103340000DF918B184F85860BDE8F087E06D40F6DB
:103350000161884340F48070E0652068B84201D183
:10336000414605E02249884201D1224900E0014658
:10337000814200D01DB9E06D20F48010E065E06D61
:10338000C00404D5206E20F00600206600E026660A
:10339000616D1948C862616D18480863616D18480D
:1033A000486321681C20086084F8586020684168E0
:1033B00041F0100141602068C16841F00101C16025
:1033C00021684B4652464031606D00F04BF9216850
:1033D0008A680C4B1A40121D8A60B5E70220B3E7D9
:1033E000000100500003005000070050000600508C
:1033F0000005005000040050D124000853250008A7
:1034000039250008C0FFFF7F10B590F82530002156
:103410000122022B03D00421C163012122E00368B1
:103420001C6824F00E041C60836C1C6824F48074F7
:103430001C6003681C6824F001041C6090F8443090
:10344000046C03F01F0302FA03F36360D0E9133442
:103450005C60436D33B11C6824F480741C60D0E957
:1034600016345C6080F82520002280F8242008466D
:1034700010BD70B590F82520002401212346022AB2
:1034800007D00422C26380F8251080F8243001247C
:1034900029E00268156825F00E05156002681568B8
:1034A00025F001051560826C156825F4807515609E
:1034B00090F84420056C02F01F0201FA02F26A60E3
:1034C000D0E913255560426D32B1156825F4807539
:1034D0001560D0E91625556080F8251080F8243055
:1034E000816B01B18847204670BDF0B4016C0C6857
:1034F00001680D6890F8442002F01F06042202FAC9
:1035000006F3234211D06B070FD50B689B0603D43B
:103510000B6823F004030B6090F8441001F01F01C6
:103520008A40016C4A60016B1DE0022303FA06F732
:1035300027424FF0000C4FF0010218D0AF0716D50C
:103540000C68A40605D40C6824F00A040C6080F80A
:10355000252090F8441001F01F018B40016C4B6056
:1035600080F824C0C16A00291AD0F0BC084708239B
:10357000B340234214D02B0712D50B6823F00E035F
:103580000B6090F84410036C01F01F0102FA01F186
:103590005960C26380F8252080F824C0416BE2E7BF
:1035A000F0BC704770B504000CD02B4A2168142081
:1035B000914209D2294A0A44B2FBF0F080006064CB
:1035C00027480AE0012070BD234A52420A44B2FB58
:1035D000F0F080006064204808382064022084F8FD
:1035E00025000A6847F6F0708243D4E902031843C5
:1035F000D4E904352B431843A3691843E3691843FE
:10360000236A1843104308602046FFF745F8A06876
:103610000025B0F5804F00D16560A16C207908606D
:10362000D4E9130141606068401E032808D8204691
:10363000FFF752F8606D0560D4E91601416002E0C1
:103640006565A565E565E563012084F8250084F8D6
:103650002450002070BD000008040240F8FFFDBFA8
:103660000000024070B5044690F8240000250128AF
:103670000CD0012084F8240094F825600020012E4D
:1036800006D084F824000225284670BD022070BDB3
:10369000022684F82560E0632068066826F00106AB
:1036A00006602046FFF72AF8206B00282068016892
:1036B00002D041F00E0106E021F004010160206813
:1036C000016841F00A010160A06C0168C90303D5DB
:1036D000016841F480710160606D18B1016841F4C6
:1036E000807101602068016841F001010160CBE751
:1036F0002DE9F04FDFF82092002301260324A9F1E1
:10370000040B85B00F2709F1040AABF1040EFAE0AF
:1037100006FA03F52A407CD091F804C00CF0030CA3
:10372000BCF1010F02D0BCF1020F26D1D0F808C0C5
:10373000CDF800C04FEA430C04FA0CF8CDF810C0E5
:10374000DDF800C02CEA080CCDF800C0D1F80C80E0
:10375000DDF810C008FA0CF8DDF800C048EA0C08E3
:10376000C0F80880D0F804C02CEA050C0D79C5F328
:1037700000159D4045EA0C0545600D79ED43AD0708
:103780000ED0C5684FEA430804FA08FC25EA0C0588
:10379000D1F808C00CFA08FC4CEA050CC0F80CC0C3
:1037A0000D7905F00305022D16D1DD0800EB850C1F
:1037B000CDF808C0DCF820805D074FEAD56C07FA29
:1037C0000CF528EA05080D6905FA0CF5DDF808C0C6
:1037D00045EA0805CCF8205005684FEA430CCDF8BF
:1037E00008C004FA0CFC25EA0C0591F804C00CF0A2
:1037F0000308DDF808C008FA0CF848EA0508C0F824
:1038000000804D6815F4403F7CD0444DD5F860C031
:1038100000E077E04CF0010CC5F860C02D6E23F09D
:10382000030C05F0010500953D4D65440295AD681A
:103830004FEA837C4FEA1C7807FA08FC25EA0C055E
:10384000B0F1904F06D0DFF8DCC0604505D14FF0F5
:10385000010C20E04FF0000C1DE0DFF8CCC060450B
:1038600002D14FF0020C16E0DFF8C0C0604502D173
:103870004FF0030C0FE0DFF8B8C0604502D14FF005
:10388000040C08E0DFF8ACC0604502D14FF0050C35
:1038900001E04FF0060C0CFA08FC4CEA050C029D06
:1038A000C5F808C0D9F80050CC46D1F8048095433B
:1038B0005FEAC82800D51543CCF80050DAF800506C
:1038C000D446D1F8048095435FEA882800D5154393
:1038D000CCF80050DBF80050DC46D1F8048095436A
:1038E0005FEA883800D51543CCF80050DEF8005068
:1038F000F446D1F8048095435FEAC83800D51543F3
:10390000CCF800505B1C0A6832FA03F57FF400AF74
:1039100005B0BDE8F08F000008040140001002402F
:10392000000001400004004800080048000C004866
:1039300000100048001400480069084000D0012031
:1039400070470AB1816170478162704701488068A1
:10395000704700000400002002488168426811445A
:10396000816070470400002010B50024032000F09F
:1039700073F8002000F008F808B1012401E000F01D
:1039800025F8204610BD000070B50E4E05460024F7
:10399000706898B14FF47A71B1FBF0F00A49096888
:1039A000B1FBF0F000F0ACFD40B9102D06D20022C2
:1039B0002946501E00F030F8356000E00124204612
:1039C00070BD000004000020100000200A4882B0F2
:1039D000016E41F001010166016E01F001010091EB
:1039E000816D41F080518165806D00F080500090C4
:1039F00002B000F0A1B8000000100240002809DB6E
:103A000000F01F02012191404009800000F1E020F8
:103A1000C0F8001170470000F0B40E4B1B680C4654
:103A2000C3F30223C3F10705042D00D90425191D92
:103A3000072901D2002300E0DB1E012606FA05F16A
:103A4000491E214099409E40761E16403143F0BCED
:103A500002F016B90CED00E0064900F00702086814
:103A60004FF6FF03184040EA0220034A1043086063
:103A7000704700000CED00E00000FA052B492C4BCC
:103A80000A6832214A432B4940B1B0F5007F0868EB
:103A900029D020F4C06040F480602CE00868C0F3B6
:103AA0004120022804D051F8800F20F4807022E0D9
:103AB000D1F8800020F48070C1F88000086820F4FC
:103AC000C06040F400700860B2FBF3F0401C00E0FE
:103AD000401E4A69520501D50028F9D148694005C0
:103AE0000AD503207047C0F34120022806D051F8C0
:103AF000800F40F48070086000207047D1F880008B
:103B000040F48070C1F88000086820F4C06040F480
:103B100000700860B2FBF3F0401C00E0401E4A69F0
:103B20005205DBD50028F9D1D8E7000010000020AD
:103B300040420F00007000400248816841F480411B
:103B400081607047007000402DE9F843044600682A
:103B50000026BB4D00035ED5A86D0027C00008D429
:103B6000A86D40F08050A865A86D012700F0805036
:103B70000090DFF8D092D9F8001041F48071C9F8B4
:103B80000010FFF7E3FE804606E000BFFFF7DEFE11
:103B9000A0EB080002282BD8D9F80000C005F5D505
:103BA000D5F8900010F4407014D0216D814211D0EE
:103BB000D5F89000D5F8901020F4407041F4803191
:103BC000C5F89010D5F8901021F48031C5F8901008
:103BD000C5F89000C00711D0FFF7B8FE804641F24B
:103BE000883907E0FFF7B2FEA0EB0801494501D98B
:103BF00003260BE0D5F890008007F3D5D5F89000A8
:103C0000216D20F440700843C5F890001FB1A86DE5
:103C100020F08050A8652078C00707D0D5F888002C
:103C2000616820F003000843C5F888002078800709
:103C300007D5D5F88800A16820F00C000843C5F826
:103C400088002078400707D5D5F88800E16820F083
:103C500030000843C5F888002078000707D5D5F85C
:103C60008800216920F0C0000843C5F8880020784A
:103C7000C00607D5D5F88800616920F44070084374
:103C8000C5F888002078800607D5D5F88800A16996
:103C900020F440600843C5F888002078400607D526
:103CA000D5F88800E16920F440500843C5F8880041
:103CB0002078000607D5D5F88800216A20F4404016
:103CC0000843C5F888002088C00507D5D5F88800C6
:103CD000616A20F440300843C5F8880020688003FA
:103CE00007D5D5F89C00A16A20F003000843C5F869
:103CF0009C002088800507D5D5F88800E16A20F46B
:103D000040200843C5F88800208840050FD5D5F825
:103D10008800216B20F440100843C5F88800206B10
:103D2000B0F5801F03D1E86840F48010E860208877
:103D300000050FD5D5F88800616B20F440000843DA
:103D4000C5F88800606BB0F5800F03D1E86840F4D7
:103D50008010E8602088C0040FD5D5F88800A16BDA
:103D600020F040700843C5F88800A06BB0F1807F58
:103D700003D1E86840F48010E86020884FF00061CB
:103D800080040ED5D5F88800E26B20F04060104327
:103D9000C5F88800E06B884203D1E86840F48010E1
:103DA000E860208840040ED5D5F88800226C20F009
:103DB00040601043C5F88800206C884203D1E86851
:103DC00040F48010E860208800040FD5D5F8880002
:103DD000616C20F040500843C5F88800606CB0F179
:103DE000805F03D1E86840F48030E8602068C00359
:103DF0000FD5D5F88800A16C20F040400843C5F8E5
:103E00008800A06CB0F1804F03D1E86840F48030A6
:103E1000E860206840030FD5D5F89C00E16C20F4E1
:103E200040100843C5F89C00E06CB0F5001F03D1BA
:103E3000E86840F48010E8603046BDE8F883000090
:103E400000100240007000402DE9F0470E460500CA
:103E50004FF0000725D0DFF8AC81D8F8000000F063
:103E60000F00B0420CD2D8F8001021F00F013143FE
:103E7000C8F80010D8F8000000F00F00B04210D1D0
:103E80002968614CC80741F2883A5AD06868DFF85F
:103E90007C91032808D0022820682DD040050028F6
:103EA0002CDB0120BDE8F08720688001F9D5E068AF
:103EB00000F00302E068C0F30310401C032A19D08D
:103EC000534A00BFB2FBF0F0E268C2F3062250434F
:103ED000E268C2F34162521C5200B0FBF2F0484566
:103EE00017D9A06810F0F00F0CD0880711D5A8687A
:103EF00040B10EE0474AE5E78003D0E700F0B6F8AE
:103F0000484506D9A06820F0F00040F08000A0608D
:103F10008027A068696820F003000843A060FFF7CD
:103F200015FD814606E000BFFFF710FDA0EB09017B
:103F300051453AD8A068696800F00C00B0EB810FD9
:103F4000F2D12868810714D5400703D5A06840F452
:103F5000E060A0602878000705D5A06820F46050D4
:103F600040F4E060A060A068A96820F0F000084379
:103F700004E0802F03D1A06820F0F000A060D8F802
:103F80000010404601F00F01B14216D9016821F03E
:103F90000F0131430160FFF7D9FC074607E000BF7E
:103FA000FFF7D4FCC11B514501D903207AE7D8F8AB
:103FB000000000F00F00B042F2D12878400705D58C
:103FC000A068E96820F4E0600843A0602878000752
:103FD00006D5A068296920F4605040EAC100A060BD
:103FE00000F044F8A1680C4AC1F30311515C01F0E0
:103FF0001F01C8400949086009480068BDE8F0474A
:10400000FFF7C2BC002002400010024000B4C4040C
:104010000024F40000366E017870000810000020C3
:10402000040000200548064900688968054AC1F374
:104030000221515C01F01F01C840704710000020B0
:104040000010024088700008054806490068896829
:10405000054AC1F3C221515C01F01F01C8407047FD
:10406000100000200010024088700008184910B5A8
:104070008868C0F381021748012A0BD08A68164B62
:10408000C2F38102022A06D08A68C2F38102032A9F
:1040900003D0002010BD184610BDCA6802F003040A
:1040A000CA68C2F30312521C032C02D0B0FBF2F018
:1040B00001E0B3FBF2F0CA68C968C2F306225043BC
:1040C000C1F34161491C4900B0FBF1F010BD000093
:1040D000001002400024F40000366E012DE9F84380
:1040E00004007AD02078FA4DC00747D0A868E96864
:1040F00000F00C0001F003010C2802D0082817D0B2
:1041000001E0032914D06068B0F5803F17D0B0F506
:10411000A02F286817D020F480302860286820F469
:10412000802028606068E0B1FFF710FC064614E0CC
:104130002868800322D560680028D2D01EE0286855
:1041400040F48030EDE740F480202860F7E700BFBE
:10415000FFF7FCFB801B642870D828688003F7D524
:104160000CE0FFF7F3FB064605E000BFFFF7EEFBB0
:10417000801B6428F0D828688003F7D42078800753
:104180004CD5A868E96800F00C0001F003010C2888
:1041900002D004280DD001E002290AD0E0680028EE
:1041A00028682BD040F480702860FFF7CFFB0646CC
:1041B00019E02868400502D5E068002891D06868B9
:1041C000217C20F0FE4040EA01606860C148006840
:1041D000FFF7DAFB002800D120E076E1FFF7B6FB1D
:1041E000801B0228B8D828684005F7D56868217C6C
:1041F00020F0FE4040EA016068600FE020F480702B
:104200002860FFF7A3FB064605E000BFFFF79EFB13
:10421000801B0228A0D828684005F7D42078000722
:1042200029D560690028D5F8940013D040F001002A
:10423000C5F89400FFF78AFB064606E090E000BF51
:10424000FFF784FB801B022886D8D5F894008007EE
:10425000F6D510E020F00100C5F89400FFF776FBDA
:10426000064604E0FFF772FB801B022878D8D5F8D9
:1042700094008007F6D42078400761D5A86D002609
:10428000C00008D4A86D40F08050A865A86D012634
:1042900000F08050009090480168C90511D4016871
:1042A000804641F480710160FFF750FB074604E04F
:1042B000FFF74CFBC01B022852D8D8F80000C005FD
:1042C000F6D5A068012815D00528D5F8900016D09D
:1042D00020F00100C5F89000D5F8900020F004000F
:1042E000C5F89000A06841F28838B8B1FFF72EFBFE
:1042F00007460EE0D5F8900040F00100F0E740F0EE
:104300000400C5F89000F5E7FFF720FBC11B41450D
:1043100026D8D5F890008007F6D50CE0FFF716FBFD
:10432000074604E0FFF712FBC11B414518D8D5F83A
:1043300090008007F6D41EB1A86D20F08050A865CB
:104340002078800629D5A0690028D5F8980013D0D8
:1043500040F00100C5F89800FFF7F8FA064606E0BD
:1043600077E000BFFFF7F2FA801B022877D8D5F874
:1043700098008007F6D510E020F00100C5F89800FD
:10438000FFF7E4FA064604E0FFF7E0FA801B022894
:1043900065D8D5F898008007F6D4E069F0B3A9682D
:1043A000C1F38101032961D00228286820F08070C0
:1043B00028600BD0E86820F00300E860E86847490F
:1043C0000840E860FFF7C2FA04464BE0FFF7BEFA88
:1043D000064604E0FFF7BAFA801B02283FD8286897
:1043E0008001F7D4F4E908016FF00F0202EB01112C
:1043F0000843218A5204490802EB4151A26841EA6C
:1044000002210843217D4FF07E42490802EB4161C1
:104410000843217B40EAC160E96800E062E0304A7D
:1044200011400843E860286840F080702860E86820
:1044300040F08070E860FFF789FA044605E000BFAD
:10444000FFF784FA001B022809D828688001F7D5F5
:1044500048E004E0FFF77AFA001B022802D90320A3
:10446000BDE8F88328688001F4D43BE00128F7D048
:10447000E868226A00F00301914226D1616A00F0E7
:10448000F0020901103991421FD1A26A00F4FE41E5
:10449000B1EB022F19D194F82C2000F07841B1EB48
:1044A000C26F12D1218E00F4C00249084905A1F55E
:1044B0000011914209D194F8341000F0C06049080D
:1044C0004906A1F1007181420CD00120C8E700002B
:1044D000001002400400002000700040FFFFEEFECC
:1044E0000C809F010020BBE74FF0E0210428086901
:1044F00003D020F004000861704740F00400FAE7A0
:1045000010B5401EB0F1807F01D3012010BD4FF0E7
:10451000E02460610F21601701F0B2FB0020A06170
:1045200007202061002010BDF0B590F83C20012A42
:1045300043D0012580F83C50022280F83D200368DA
:104540005A689C681E4E1F4FDFF87CC0B34203D0F0
:10455000BB4201D0634504D122F4700E4A6842EA9E
:104560000E02DFF868E002EA0E02D1F800E04EEA3F
:10457000020EC3F804E00268B24212D0B2F1804FDA
:104580000FD0134B9A420CD0124B9A4209D0124BC7
:104590009A4206D0BA4204D0104B9A4201D06245EA
:1045A00004D1896824F080031943916080F83D505C
:1045B000002180F83C100846F0BD0220F0BD00004C
:1045C000002C014000340140005001408FFFFFFDEE
:1045D0000004004000080040000C00400040014082
:1045E00010B5040003D094F83D0010B107E001209D
:1045F00010BD002084F83C00204600F023F8022083
:1046000084F83D00211D206800F09EFF012084F801
:10461000480084F83E0084F83F0084F8400084F8A5
:10462000410084F8420084F8430084F8440084F890
:10463000450084F8460084F8470084F83D000020D7
:1046400010BD000008B500680649884208D1064838
:10465000816D41F002018165806D00F002000090E3
:1046600008BD0000000400400010024090F83D101A
:10467000012901D001207047022180F83D10006817
:104680001249884214D0B0F1804F11D010498842AD
:104690000ED0104988420BD00F49884208D00F49EC
:1046A000884205D00E49884202D00E49884207D17F
:1046B00081680D4A1140062906D0B1F5803F03D02C
:1046C000016841F00101016000207047002C0140A9
:1046D0000004004000080040000C0040003401408D
:1046E00000400140005001400700010070B5044641
:1046F00090F83C00002501281CD0012684F83C607D
:10470000022084F83D0022689068334B184020F462
:104710007F4090600868B0F5005F2ED016DC40281E
:1047200049D009DCD0B1102818D0202816D0302864
:1047300049D113E0022070BD50282AD0602830D023
:1047400070280FD0B0F5805F3DD13DE010F00F0F25
:1047500039D10111A1F58031072934D822680146E9
:10476000104625E0CB68D1E90121206800F056FF12
:104770002068816841F0770109E0CB68D1E9012127
:10478000206800F04BFF2068816841F4804181601F
:104790001AE0CA684968206800F054FF5021206878
:1047A00006E0CA684968206800F05DFF6021206863
:1047B00000F03EFF08E0CA684968206800F042FF48
:1047C00040212068F4E7012584F83D60002084F84A
:1047D0003C00284670BD000088FFCEFF90F8801096
:1047E000012918D0012180F880102421C0F88410FC
:1047F00050F8641B0A680B6823F001030B6022F079
:1048000000510022026050F8643C196020210162CE
:10481000027710467047022070477047704770B5A6
:10482000044690F8800001281DD0012084F8800003
:104830002420C4F8840020680568026822F0010280
:1048400002602068826822F060620A43826020462B
:1048500000F01CFF206805602020C4F884000020C0
:1048600084F8800070BD022070BD70B5044690F8D9
:10487000800001281DD0012084F880002420C4F885
:10488000840020680568026822F001020260206846
:10489000826822F060420A438260204600F0F6FE01
:1048A000206805602020C4F88400002084F880007F
:1048B00070BD022070BD7047704770472DE9F04110
:1048C00003680446D86919689A6840F60F052842BB
:1048D0004FF0000509D186067ED501F0200602F0D2
:1048E00080573E4378D0216F27E1A94EA94F16404B
:1048F0000F40374370D0C70709D0CF0507D5012730
:104900001F62D4F88C3043F00103C4F88C30830765
:104910000AD5D30708D0276802233B62D4F88C302D
:1049200043F00403C4F88C3043070AD5D30708D0FA
:10493000276804233B62D4F88C3043F00203C4F8A8
:104940008C3003070CD501F02003334308D02668D0
:1049500008233362D4F88C3043F00803C4F88C3059
:1049600003050BD54B0109D526684FF4006333626C
:10497000D4F88C3043F02003C4F88C30D4F88C3059
:10498000002B3AD0800609D501F0200002F08051BA
:10499000084303D0216F09B120468847D4F88C0022
:1049A00021688968490602D410F0280F27D02046D4
:1049B00000F02CFF2068806840061BD52068083076
:1049C00050E8001F21F0400140E80012002AF5D114
:1049D000E06F78B1704900E017E08163E06FFEF7A7
:1049E00048FD002809D0E06F816B00E02046BDE85B
:1049F000F04108472046FFF760FFBDE8F081204600
:104A0000FFF75BFFC4F88C50F7E7E76E2026012F15
:104A10007ED1C7067CD5CF067AD5102018622068D3
:104A20008068400642D5E16F086840680004000CC9
:104A3000E3D0B4F85C208242DFD9A4F85E000868B5
:104A4000006880062BD4206850E8001F21F4807194
:104A500040E80012002AF6D12068083050E8001F14
:104A600021F0010140E80012002AF5D12068083049
:104A700050E8001F21F0400140E80012002AF5D163
:104A8000C4F88860E566216851E8000F20F0100046
:104A900041E80002002AF6D1E06FFEF7B5FCB4F859
:104AA0005C00B4F85E10401A81B22CE0B4F85C00EF
:104AB000B4F85E10401A81B2B4F85E0000289CD0B1
:104AC00000299AD0226852E8000F20F4907042E842
:104AD0000003002BF6D12E4BDB432068083050E852
:104AE000002F1A4040E80027002FF6D1C4F8886054
:104AF000E5662567226852E8000F20F0100042E8C2
:104B00000003002BF6D12046FFF787FE75E7FFE78D
:104B1000C70209D5570207D54FF480101862204606
:104B2000BDE8F041FFF7C8BE03060AD501F08003D7
:104B300002F40002134304D0616F00297FF456AFE2
:104B40005BE7420611D54A060FD52046016851E8B9
:104B5000002F22F0400241E80023002BF6D1C0F8DC
:104B60008460456700F096F847E7020206D54A00E0
:104B700004D52046BDE8F041FFF79DBEC001C5D574
:104B80000029C3DA2046BDE8F041FFF747BE000028
:104B90000100001020010004F957000810B50400BE
:104BA00003D0D4F8840010B107E0012010BD00202C
:104BB00084F88000204600F027F82420C4F8840000
:104BC0002068016821F001010160204600F048FEE4
:104BD0000128EBD0A06A10B1204600F079FD2068D2
:104BE000416821F4904141602068816821F02A01E8
:104BF00081602068016841F0010101602046BDE844
:104C0000104000F0C9BD000010B59CB0044614214E
:104C100015A8FBF724FD54216846FBF720FD1A492F
:104C2000206888422ED101200024CDE90004684686
:104C3000FEF78AFF08B1FDF781FD1448016E41F4CB
:104C400080410166016E01F480411A91C16C41F00E
:104C50000401C164C06C15A900F004001A90302052
:104C600015900220CDE916040720CDE91840084828
:104C7000FEF73EFD002211462520FEF7CDFE252041
:104C8000FEF7BCFE1CB010BD003801400010024011
:104C9000000800487047FEE770B50D46044600F076
:104CA0005FF8782000F020F800F0B0F8204600F01F
:104CB0001BF800F0ABF8284600F016F800F0A6F854
:104CC000BDE8704000F076B810B5064C0122110224
:104CD0002046FEF736FE20460122BDE81040510274
:104CE000FEF72FBE000400482DE9F0411B4C06469C
:104CF0002046216821F440212160216841F480216F
:104D000021604FF4007700223946FEF71AFE002595
:104D10004FF48078300601D5012200E000224146A0
:104D20002046FEF70EFE7006060E022001F00CF87B
:104D3000012239462046FEF704FE022001F004F865
:104D4000002239462046FEF7FCFD022000F0FCFF61
:104D50006D1CEDB2082DDDD3BDE8F08100040048E4
:104D600070B5134C206820F440202060206840F487
:104D7000802020600122150229462046FEF7E1FD31
:104D80000122560231462046FEF7DBFD042000F0EA
:104D9000DBFF002229462046FEF7D3FD042000F069
:104DA000D3FF31462046BDE870400022FEF7C9BD62
:104DB0000004004870B5144C206820F440202060A6
:104DC000206840F4802020604FF4007500222946BE
:104DD0002046FEF7B6FD6E10002231462046FEF753
:104DE000B0FD042000F0B0FF012229462046FEF766
:104DF000A8FD012231462046FEF7A3FDBDE8704024
:104E0000042000F0A1BF0000000400482DE9F0419B
:104E1000184C0025206820F4402020602068206085
:104E20000122160231462046FEF78BFD012000F0DC
:104E30008BFF0122570239462046FEF782FD0120F2
:104E400000F082FF08E06D1CEDB2FA2D04D9FFF7E7
:104E5000B1FF0120BDE8F08131462046FEF76CFD30
:104E60000028F0D1002239462046FEF76AFD0020D6
:104E7000F0E700000004004800EB8100006E00F045
:104E8000F84070478068C0F3C00070478068C0F386
:104E9000800070478068C0F380007047C06810F4DD
:104EA000406F01D00020704701207047042303EABF
:104EB000D15310B518444369C1F3045107248C4001
:104EC000A3438A401343436110BD00EB8100016E90
:104ED00021F00041114301667047000030B58BB0EE
:104EE000002408940994202168460A94FBF7B7FB34
:104EF0001E484FF0A041042501604FF44031C0E945
:104F00000114C4600461C0E90545047744770121B8
:104F1000016280F824404FF49061C162290201636C
:104F200080F83840C46380F84040FEF765F808B167
:104F3000FDF704FC08A90D480894FDF77DFD08B1B4
:104F4000FDF7FCFB0A4800900620CDE901047F2014
:104F50000594CDE9030569460448FDF71BFE0028CA
:104F600001D0FDF7EBFB0BB030BD00004C02002080
:104F7000020030040D4808B5816C41F004018164E1
:104F8000816C01F004010091816C41F001018164A8
:104F9000806C002200F00100009011460B20FEF70B
:104FA0003BFDBDE808400B20FEF728BD0010024085
:104FB00030B587B014216846FBF751FB1A48C16C25
:104FC00041F00401C164C16C01F004010591C16CA0
:104FD00041F02001C164C16C01F020010591C16C58
:104FE00041F00101C164C16C01F001010591C16C86
:104FF00041F00201C164C06C0C4D00F002004FF49E
:1050000040740590002221462846FEF79AFC1120A4
:10501000CDE9004001200290032003906946284614
:10502000FEF766FB07B030BD0010024000040048E8
:1050300010B588B00024174800940194029403949A
:105040000494059412490694C0E900144FF6FF71C8
:10505000C0E9024104618461FFF7C2FA08B1FDF7BB
:105060006DFB4FF48050009069460A48FFF73EFB05
:1050700008B1FDF763FB2020049004A906940548BD
:10508000FFF752FA002801D0FDF758FB08B010BD19
:105090000004004018030020184810B516490160AC
:1050A0004FF4E1314160002181600C22C160C0E910
:1050B00004128161C161016241628162FFF76EFD8C
:1050C00008B1FDF73BFB00210C48FFF7CEFB08B110
:1050D000FDF734FB00210948FFF7A1FB08B1FDF7FC
:1050E0002DFB0648FFF77AFB002803D0BDE81040EF
:1050F000FDF724BB10BD0000003801406403002010
:10510000FEE700000A4A01200849526808E00B182F
:1051100013F8013C0D2B02D10B5C0A2B04D0401C70
:105120009042F4D30020704701207047BC3C00201F
:105130003C020020094881680968C96989060CD5C4
:1051400007490A68074B41685A54491C4160642961
:1051500003D1002141600121017070473C02002011
:1051600024380140BC3C0020034988600068016885
:1051700041F02001016070473C02002030B5054637
:10518000FFF7C0FF002815D00C4800240C4A4068E7
:105190000AE0115D295534B12B1913F8013C0D2B90
:1051A00001D10A2907D0641C8442F2D3204600F0C2
:1051B00051FD204630BD641CF8E700003C02002091
:1051C000BC3C0020FEE70020AFF3008070B506462F
:1051D0005FF0000404F1B000C0B200F01AFD00203E
:1051E00000F017FD102000F014FD0025304600F0FF
:1051F00014FD6D1CEDB2802DF8D3641CE4B2082CB4
:10520000E8D370BD10B5FFF75FFD642000F096FD98
:10521000AE2000F0FEFC202000F0FBFC102000F08F
:10522000F8FCB02000F0F5FCC82000F0F2FC0020F3
:1052300000F0EFFC102000F0ECFC402000F0E9FC56
:10524000812000F0E6FC204C607800F0E2FCA12018
:1052500000F0DFFC207808B1A62000E0A72000F0D5
:10526000D8FCA82000F0D5FC3F2000F0D2FCA42000
:1052700000F0CFFCD32000F0CCFC002000F0C9FCF3
:10528000D52000F0C6FCF02000F0C3FCD92000F0CF
:10529000C0FC222000F0BDFCDA2000F0BAFC122095
:1052A00000F0B7FCDB2000F0B4FC202000F0B1FCE3
:1052B0008D2000F0AEFC142000F0ABFCBDE81040E7
:1052C000AF2000F0A6BC00001600002010B5044678
:1052D000B031C8B200F09DFC102040EA141000F07C
:1052E00098FC04F00F00BDE8104040F0010000F011
:1052F00090BC00002DE9F0410F4680460025540186
:10530000FFF7E4FF0C4E305D00F087FC6D1CEDB242
:10531000641C102DF7D37F1CF9B24046FFF7D6FF6F
:105320000025305D00F079FC6D1CEDB2641C102D81
:10533000F7D3BDE8F0810000190000202DE9F0410D
:105340000024203A0F468046012B21D0022B1DD18C
:10535000D6B2FFF7BBFF164D04EB0610285C00F039
:105360005CFC641CE4B2082CF6D37F1CF9B2404606
:10537000FFF7ACFF5FF0000404EB06102844007A4E
:1053800000F04BFC641CE4B2082CF5D3BDE8F081BE
:10539000D5B2FFF79BFF074905EB450001EB400540
:1053A000285D00F03AFC641CE4B2062CF8D3EDE76B
:1053B000C6720008987000087FB514460D46064670
:1053C00053EC102B08A16846FBF72AF800208DF853
:1053D0000F0023466A462946304600F009F8684621
:1053E000FBF71EF904B070BD252E326C660000007C
:1053F0002DE9F047002591468A460446012B22D02C
:10540000DFF8BC80022B24D155E02038C7B27E2CB7
:1054100004D90AF10100002400F0FF0A5146204699
:10542000FFF754FF07EB4700002608EB4007B85D85
:1054300000F0F3FB761CF6B2062EF8D3A41D6D1C0B
:10544000E4B2EDB201E0DFF87C8019F80500002835
:10545000DBD1BDE8F0872038C7B2782C04D90AF137
:105460000100002400F0FF0A51462046FFF72EFFFE
:105470005FF0000606EB071118F8010000F0CDFB05
:10548000761CF6B2082EF5D30AF10100C1B220460F
:10549000FFF71CFF5FF0000606EB071101EB0800A9
:1054A000007A00F0BAFB761CF6B2082EF4D308346A
:1054B0006D1CE4B2EDB219F805000028CBD1C8E7A5
:1054C000C67200089870000870477047FEF744BA2B
:1054D00010B594B038216846FBF7C1F814210EA826
:1054E000FBF7BDF80020FEF7C9FA01200090000488
:1054F000032406210190CDE9084102205521CDE980
:105500000A1007900C900D906846FEF7E7FD08B171
:1055100072B6FEE70F20CDE90E0400201090119026
:10552000129004210EA8FEF78FFC002801D072B65D
:10553000FEE714B010BD00000248016841F470019C
:105540000160704788ED00E02DE9F04F02682A4BBA
:105550002A4E2B4FDFF8ACC02B4C2C4D4FF0804B1C
:1055600098420BD0584509D0B04207D0B84205D078
:10557000604503D0A04201D0A84204D122F07008B7
:105580004A6842EA0802DFF88880DFF88890DFF88E
:1055900088A0984211D058450FD0B0420DD0B842E3
:1055A0000BD0604509D0A04207D0404505D0484502
:1055B00003D0504501D0A84203D122F44076CA68F6
:1055C00032434E6922F08002324302608A68C2622E
:1055D0000A688262984209D0A04207D0404505D0AF
:1055E000484503D0504501D0A84201D10969016363
:1055F00001214161BDE8F08F002C01400004004012
:1056000000080040000C0040003401400050014000
:1056100000400140004401400048014010B584684A
:1056200042EA032224F47F440A432243826010BDED
:105630008268034B1A400A4342F0070181607047B9
:105640008FFFCFFF10B5036A046A24F001040462DF
:10565000846924F0F00444EA021423F00A020A43A5
:105660008461026210BD10B5036A23F01003036267
:105670008369046A23F4704343EA023224F0A003EE
:1056800043EA01118261016210BD000030B5416E34
:10569000B9B1026891689268C1F342610B4B520F35
:1056A0009C5CE50003F10804A25CB5FBF2F2A0F8F3
:1056B0006A205A5C615CD200B2FBF1F1A0F868107C
:1056C00030BD0121A0F86A10F8E7000068700008FA
:1056D00090F82810C90706D001684A68C36A22F406
:1056E00000321A434A6090F82810890706D50168ED
:1056F0004A68036B22F480321A434A6090F82810FB
:10570000490706D501684A68436B22F480221A4390
:105710004A6090F82810090706D501684A68836B2B
:1057200022F400421A434A6090F82810C90606D5B0
:1057300001688A68C36B22F480521A438A6090F829
:105740002810890606D501688A68036C22F4005285
:105750001A438A6090F82810490611D501684A68F2
:10576000436C22F480121A434A60416CB1F5801FE9
:1057700006D101684A68836C22F4C0021A434A6069
:1057800090F82810090606D501684A68C06C22F412
:10579000002202434A607047F8B500260446C0F86C
:1057A0008C60FEF7D3F80546206800686FF07E47EE
:1057B000000708D52B4600224FF400112046009721
:1057C00000F09AF960B92068006840070AD52B46B6
:1057D00000224FF480012046009700F08DF908B1B7
:1057E0000320F8BD2020C4F88400C4F8880044F8E1
:1057F0006C6F00202675F8BD10B5806A0021A0F8F6
:105800005E10A0F85610FFF758F810BD10B50268EA
:1058100052E8001F21F4907142E80013002BF6D1EA
:105820000E4B0268083252E8001F194042E800148B
:10583000002CF6D1C16E012908D1016851E8002F72
:1058400022F0100241E80023002BF6D12021C0F8FD
:1058500088100021C166016710BD0000FEFFFFEF48
:105860002DE9F0410446016880682269E36910432C
:10587000626900251A431043DFF84CC20A68934B53
:105880001A4002430A6020684168E26821F44051EE
:10589000114341602168A069614501D0226A10432B
:1058A0008A688B4B1A4002438A602068C16A626A28
:1058B00021F00F011143C1628649236886488B425B
:1058C0000DD1D0F8880010F0030006D0012867D071
:1058D000022854D0032851D164E001204FE07F49D1
:1058E0008B420BD1D0F8880010F00C0047D0042870
:1058F00045D0082852D00C2840D153E078498B423B
:105900000BD1D0F8880010F0300038D0102847D0E4
:10591000202843D0302831D144E072498B420BD14A
:10592000D0F8880010F0C00029D0402838D0802856
:1059300034D0C02822D135E06B498B420ED1D0F84B
:10594000880010F440701AD0B0F5807F28D0B0F5F0
:10595000007F23D0B0F5407F10D123E063450DD107
:10596000D0F8880010F4406009D0B0F5806F17D0EF
:10597000B0F5006F12D0B0F5406F13D010205B4A25
:105980005B4F00264FF40041634539D160B10228D6
:105990000DD004280DD0082831D10EE00220EEE70A
:1059A0000420ECE70820EAE7FEF73CFB03E01146A1
:1059B00003E0FEF75BFB01007BD0606A37F8102044
:1059C0006768B1FBF2F007EB4703834269D8B0EB9D
:1059D000073F66D8002308461946FAF79DFC0902DE
:1059E00041EA106102027808101871413A4600231A
:1059F000FAF792FC3F4AA0F54071914257D950E026
:105A0000E3694FF6EF788B422BD1092849D2DFE8C2
:105A100000F005080D48254848480E00FEF702FB37
:105A200001E0FEF711FB010001D142E01146606A7E
:105A300037F81000B1FBF0F04100606801EB500155
:105A4000B1FBF0F1A1F1100040452AD84FF6F072F9
:105A500001EA0200C1F34201084328E0FEF706FB19
:105A6000E1E709281DD2DFE800F005080D1C1E1C27
:105A70001C1C0E00FEF7D6FA01E0FEF7E5FA010065
:105A800001D116E01146606A37F81000B1FBF0F161
:105A9000606801EB5001B1FBF0F0A0F1100141454D
:105AA00004D9012505E0FEF7E1FAE8E780B22168B4
:105AB000C8600120A4F86A0024F8680F2846A66090
:105AC000E660BDE8F081000000800040F369FFCF90
:105AD000FFF4FF1100380140001002400044004074
